:100000000C9434000C9451000C9451000C94F801A1
:100010000C9408010C9451000C9451000C94510064
:100020000C9451000C9451000C9451000C948300DA
:100030000C9451000C9451000C94AD000C945100A0
:100040000C9451000C9451000C946A010C945100D2
:100050000C9451000C9451000C9451000C945100DC
:100060000C9451000C94510011241FBECFEFD8E026
:10007000DEBFCDBF12E0A0E0B1E0EAE7FCE102C0E4
:1000800005900D92A435B107D9F712E0A4E5B2E0CE
:1000900001C01D92AA37B107E1F70E9489020C94B2
:1000A0003B0E0C94000086E08093C200E1ECF0E08F
:1000B0008081886180830895982F8091C00085FF9A
:1000C000FCCF9093C6000895482F8091C00085FF13
:1000D000FCCF80E48093C600242F392FC901FC0196
:1000E00007C08091C00085FFFCCF9093C600319679
:1000F00090819923B1F78091C00085FFFCCF84E205
:100100008093C60008951F920F920FB60F9211248C
:100110008F939F9380916E0290916F020297B1F43A
:1001200080915602909157020196909357028093C6
:10013000560280915602909157021816190634F40F
:1001400081E090E090936F0280936E029F918F9177
:100150000F900FBE0F901F9018951F920F920FB621
:100160000F9211242F933F935F936F937F938F93FD
:100170009F93AF93BF93809168029091690201961B
:100180009093690280936802809166029091670261
:1001900002972CF120916A0230916B0280916202E9
:1001A00090916302281739078CF48091680290912E
:1001B000690280FF2D9A809168029091690262E045
:1001C00070E00E94DB0A019709F42D988091660285
:1001D00090916702019790936702809366028091E5
:1001E0006802909169028151974224F0109269024D
:1001F00010926802BF91AF919F918F917F916F9103
:100200005F913F912F910F900FBE0F901F90189507
:100210001F920F920FB60F9211242F933F934F937B
:100220005F936F937F938F939F93AF93BF93EF935E
:10023000FF93319B0AC0109285001092840082E0E7
:1002400090E090936F0280936E02319932C080915A
:100250006E0290916F02029761F5809184009091F7
:10026000850090935B0280935A0260915A027091CC
:100270005B02882777FD8095982F0E948D0820E0EB
:1002800030E040E252E40E94E70620E030E048EE31
:1002900053E40E94E1070E94EB0870935B026093B5
:1002A0005A0210926F0210926E0210925702109230
:1002B0005602FF91EF91BF91AF919F918F917F91E6
:1002C0006F915F914F913F912F910F900FBE0F90C3
:1002D0001F9018951F920F920FB60F9211242F9313
:1002E0003F934F938F939F93EF93FF934091C6005B
:1002F0008091600290916102019709F05DC04432E3
:1003000059F580915E0290915F021816190624F546
:10031000109261021092600280915E0290915F02E1
:10032000181619060CF058C080915E0290915F0279
:1003300005C0FC01EE58FD4F1082019685309105F5
:10034000C4F310925F0210925E0281E090E09093FD
:100350005D0280935C0240C020915E0230915F029A
:1003600080916C0290916D0228173907ACF4842FAC
:1003700080538A3088F4E0915E02F0915F02EE587B
:10038000FD4F408380915E0290915F0201969093B1
:100390005F0280935E0210C0842F80538A3060F029
:1003A000109261021092600210925F0210925E023F
:1003B00010925D0210925C02403471F481E090E092
:1003C000909361028093600210925F0210925E022D
:1003D00010925D0210925C02FF91EF919F918F91BC
:1003E0004F913F912F910F900FBE0F901F90189536
:1003F0001F920F920FB60F9211242F933F938F935A
:100400009F9383B1809379028091790283FD03C029
:100410001092780203C081E0809378028091790283
:1004200084FD03C01092700203C081E080937002CB
:1004300080917802813039F480917002813019F412
:100440001092770215C080917802882321F4809160
:100450007002813059F080917802882331F48091C4
:100460007002882311F482E001C083E08093770258
:1004700090917702809171029817C1F18091710279
:100480002091770290E0019630E08217930771F097
:10049000809171022091770290E0019730E08217FD
:1004A0009307A9F080917102833069F48091620210
:1004B0009091630280599140CCF4809162029091B6
:1004C000630201960FC080917102882379F48091B4
:1004D00062029091630202974CF0809162029091C7
:1004E0006302019790936302809362028091770286
:1004F0008093710281E090E09093650280936402A2
:100500009F918F913F912F910F900FBE0F901F9051
:1005100018952F923F924F925F926F927F928F9297
:100520009F92AF92BF92CF92DF92EF92FF920F9382
:100530001F93DF93CF93CDB7DEB763970FB6F894D1
:10054000DEBF0FBECDBF3B9A3C9A3A9A39980E94C3
:1005500052068091680082608093680080916C00F0
:10056000826080936C008091680081608093680055
:1005700080916B00886080936B0080916B0080613C
:1005800080936B003D985298459A5A9A87E690E07E
:100590000E945300539A239824982B9A2C9A259AB8
:1005A0005B9887E690E09093C5008093C4008091AB
:1005B000C10080688093C1000E94C1060E94D606D7
:1005C00080E197E220E931E0F9013197F1F70197F5
:1005D000D9F781E00E94380680E091E00E942C0665
:1005E00080E197E220E931E0F9013197F1F70197D5
:1005F000D9F781E00E94380681E060E00E94480659
:100600008DE091E00E942C0688EC90E00E946D0D38
:10061000909363028093620280E060E00E9448064B
:1006200087E191E00E942C0680E064E00E94480689
:100630008CE191E00E942C0680E064E00E94480674
:1006400020916202309163024DB75EB7485050402E
:100650000FB6F8945EBF0FBE4DBFEDB7FEB7319633
:1006600043E0E42EF12CEC0EFD1EADB7BEB71296A2
:10067000FC92EE92119784E090E09383828300E2F3
:1006800011E015830483378326830E945F0B2DB707
:100690003EB7285F3F4F0FB6F8943EBF0FBE2DBF49
:1006A000C7010E942C0683E291E00E942C0666247A
:1006B0007724CC24DD24EE24FF24198A188A30E91B
:1006C000832E31E0932E2BE0222E312C2C0E3D1E5A
:1006D000580197E0492E512C4C0E5D1E02C0F98A3C
:1006E000E88A35990AC080ED97E0F4013197F1F777
:1006F0000197D9F70894C11CD11C860101701070B4
:10070000C0FC5FC04A995BC081E069E00E94480676
:1007100086E291E00E942C06429A85E38A95F1F7E1
:10072000429884EF91E0F4013197F1F70197D9F7FE
:1007300020915A0230915B02C9016AE070E00E9488
:10074000DB0AA901481B590BCA016AE070E00E944C
:10075000DB0A70936D0260936C028DB79EB70897A9
:100760000FB6F8949EBF0FBE8DBFEDB7FEB73196A2
:10077000ADB7BEB712963C922E92119745E050E06D
:1007800053834283A482B582378326830E945F0B02
:100790001F8660916C0270916D028DB79EB70896AE
:1007A0000FB6F8949EBF0FBE8DBFC1010E946400BA
:1007B00084EF91E0F4013197F1F70197D9F76624BE
:1007C0007724D601A170B070BB8BAA8BC0FE04C089
:1007D00081E0682E712C05C0B1E06B16710409F040
:1007E00053C0429A85E38A95F1F7429884EF91E0ED
:1007F000F4013197F1F70197D9F720915A0230911E
:100800005B02C9016AE070E00E94DB0AA901481B93
:10081000590BCA016AE070E00E94DB0A70936D0216
:1008200060936C028DB79EB708970FB6F8949EBF81
:100830000FBE8DBFEDB7FEB73196ADB7BEB71296FE
:100840003C922E92119745E050E053834283A4825C
:10085000B582378326830E945F0B1F8660916C02EE
:1008600070916D028DB79EB708960FB6F8949EBF33
:100870000FBE8DBFC1010E94640084EF91E0F401BE
:100880003197F1F70197D9F7809164029091650251
:10089000892B09F44DC080E060E00E94480687E1A2
:1008A00091E00E942C0680E064E00E9448068EE2FF
:1008B00091E00E942C0680E064E00E94480680914E
:1008C000620290916302ADB7BEB718970FB6F89465
:1008D000BEBF0FBEADBFEDB7FEB7319612965C92AC
:1008E0004E92119724E030E033832283A482B582B4
:1008F000978386830E945F0B4DB75EB7485F5F4F5B
:100900000FB6F8945EBF0FBE4DBFC2010E942C0609
:1009100083E291E00E942C06609162027091630272
:1009200088EC90E00E94730D1092650210926402B0
:1009300080915A0290915B028E159F0514F44398A2
:10094000449A80915A0290915B02E816F90614F4D9
:10095000439A449880915C0290915D02019791F4D2
:100960000115110531F48CEC92E0909367028093AD
:10097000660210925D0210925C0282E792E00E9491
:10098000390B7C0180916E0290916F02019789F47E
:1009900081E069E00E94480684E391E00E942C0611
:1009A00081E069E00E9448068EE391E00E942C06F7
:1009B00098CE012B09F093C080E06AE00E944806BF
:1009C00086E291E00E942C0680E06AE00E944806E0
:1009D00084E491E00E942C06C1010E942C0681E073
:1009E00069E00E94480686E291E00E942C06C70159
:1009F0006AE070E00E94DB0A8C01C701801B910B4A
:100A00006AE070E00E94DB0A70936B0260936A02F6
:100A100081E069E00E94480680916A0290916B0231
:100A2000ADB7BEB718970FB6F894BEBF0FBEADBF37
:100A3000EDB7FEB7319612965C924E92119724E074
:100A400030E033832283A482B582978386830E9419
:100A50005F0B4DB75EB7485F5F4F0FB6F8945EBF50
:100A60000FBE4DBFC2010E942C0687E491E00E9498
:100A70002C068DB79EB708970FB6F8949EBF0FBE91
:100A80008DBFEDB7FEB7319621E030E02C0F3D1F52
:100A9000ADB7BEB712963C932E93119742E050E04B
:100AA00053834283A482B582178306830E945F0B1F
:100AB0008DB79EB708960FB6F8949EBF0FBE8DBF38
:100AC000CE0101960E942C0683E291E00E942C0642
:100AD00088EE93E0F4013197F1F70197D9F7AA89ED
:100AE000BB89119709F0FDCD80E06AE00E944806BD
:100AF00086E291E00E942C0680E06AE00E944806AF
:100B000089E491E00E942C06C1010E942C062889EC
:100B100039892E153F0509F4E2CD81E069E00E9494
:100B2000480686E291E00E942C06C7016AE070E068
:100B30000E94DB0A8C01C701801B910B6AE070E008
:100B40000E94DB0A70936B0260936A0281E069E0A5
:100B50000E94480680916A0290916B024DB75EB781
:100B6000485050400FB6F8945EBF0FBE4DBFEDB772
:100B7000FEB73196ADB7BEB712965C924E92119702
:100B800024E030E033832283A482B5829783868376
:100B90000E945F0B4DB75EB7485F5F4F0FB6F8948A
:100BA0005EBF0FBE4DBFC2010E942C0687E491E0DC
:100BB0000E942C068DB79EB708970FB6F8949EBF7B
:100BC0000FBE8DBFEDB7FEB7319621E030E02C0FA0
:100BD0003D1FADB7BEB712963C932E93119742E0DE
:100BE00050E053834283A482B582178306830E9418
:100BF0005F0B8DB79EB708960FB6F8949EBF0FBED9
:100C00008DBFCE0101960E942C0683E291E00E94E6
:100C10002C0688EE93E0F4013197F1F70197D9F7AC
:100C20005ECD9BB19F709BB99BB1807F892B8BB9A7
:100C3000299A299A299808951F93182F289A0E9473
:100C40001106812F8295807F0E94110680E49FE12A
:100C50000197F1F71F910895CF93DF93EC0102C044
:100C60000E941C0689918823D9F7DF91CF910895BE
:100C70001F93182F28980E941106812F8295807F3C
:100C80000E94110680E49FE10197F1F71F910895FA
:100C9000882319F4862F805802C0862F80540E9422
:100CA000380608950F931F938AB1806F8AB984B173
:100CB000836084B980E69AEE0197F1F783E00E94A1
:100CC000110683E00E94110680E29EE40197F1F78D
:100CD00083E00E94110680EE91E00197F1F783E036
:100CE0000E94110682E00E94110600E41FE1C80183
:100CF0000197F1F788E20E941106C8010197F1F708
:100D00008FE00E941106C8010197F1F71F910F9122
:100D10000895ECE7F0E09081907F90839081982B8C
:100D2000908380818064808380818F7780838081BD
:100D300080628083EAE7F0E0808184608083808144
:100D400082608083808181608083808180688083ED
:100D500080818F7B808380818F7D808380818F7E67
:100D600080838081877F8083089580917A0080646A
:100D700080937A0080917A0086FDFCCF8091790083
:100D80000895A1E8B0E08C9188608C93EFE6F0E0E4
:100D900080818260808380E495EB909389008093CA
:100DA00088008C9182608C937894089584B58260D9
:100DB00084BDEEE6F0E080818260808383E187BDC0
:100DC00085B5816085BD85B5846085BD0895A0E247
:100DD000B0E0EDEEF6E00C94020B69837A838B832E
:100DE0009C832D833E834F835887CE010196BE019D
:100DF000675F7F4F0E94630ACE010596BE016F5E5A
:100E00007F4F0E94630A9985923088F089898230E9
:100E1000C8F0943019F4823051F404C0843029F4BD
:100E2000923081F48CE491E0C6C0923049F420E025
:100E30009A858A89981321E02A87CE010996BBC03A
:100E4000823049F420E09A858A89981321E02A8B20
:100E5000CE014196B0C02D843E844F8458886D8861
:100E60007E888F88988CEE24FF248701AA24BB24D7
:100E7000650140E050E060E070E0E0E0F0E0C101DA
:100E800081709070892BE9F0E60CF71C081D191D84
:100E90009A01AB012A0D3B1D4C1D5D1D80E090E0C9
:100EA000A0E0B0E0E614F7040805190520F481E09D
:100EB00090E0A0E0B0E0BA01A901480F591F6A1FF5
:100EC0007B1FAA0CBB1CCC1CDD1C97FE08C081E05C
:100ED00090E0A0E0B0E0A82AB92ACA2ADB2A31961D
:100EE000E032F10549F0660C771C881C991C569479
:100EF000479437942794C3CFFA85EA892B893C8994
:100F00008B859C85280F391F2E5F3F4F17C0CA0164
:100F100081709070892B61F016950795F794E7948E
:100F200080E090E0A0E0B0E8E82AF92A0A2B1B2B29
:100F300076956795579547952F5F3F4F77FDE7CF9C
:100F40000CC0440F551F661F771F17FD4160EE0C44
:100F5000FF1C001F111F21503040403090E0590706
:100F600090E0690790E4790760F32B8F3C8FDB01F9
:100F7000CA018F779070A070B07080349105A10580
:100F8000B10561F447FD0AC0E114F1040105110542
:100F900029F0405C5F4F6F4F7F4F40781A8EFE17ED
:100FA00011F081E08A8F4D8F5E8F6F8F78A383E081
:100FB000898FCE0149960E948E09A096E2E10C9499
:100FC0001E0BA8E1B0E0E7EEF7E00C940A0B698392
:100FD0007A838B839C832D833E834F835887B9E02C
:100FE000EB2EF12CEC0EFD1ECE010196B7010E94F6
:100FF000630A8E010F5E1F4FCE010596B8010E9455
:10100000630A2985223008F47EC03989323010F411
:10101000B8017CC08A859A8989278A87243011F093
:10102000223031F4231709F06EC06CE471E06EC019
:10103000343039F41D861E861F86188A1C861B864E
:1010400004C0323021F484E08987B7015FC02B856A
:101050003C858B899C89281B390B3C872B87ED8429
:10106000FE840F851889AD88BE88CF88D88CEA1495
:10107000FB040C051D0540F4EE0CFF1C001F111FA6
:10108000215030403C872B8720E030E040E050E0AA
:1010900080E090E0A0E0B0E460E070E0EA14FB04DF
:1010A0000C051D0540F0282B392B4A2B5B2BEA1829
:1010B000FB080C091D09B695A79597958795EE0C29
:1010C000FF1C001F111F6F5F7F4F6F31710531F7DC
:1010D000DA01C9018F779070A070B07080349105EB
:1010E000A105B10561F427FD0AC0E114F104010571
:1010F000110529F0205C3F4F4F4F5F4F20782D871F
:101100003E874F87588BBE01675F7F4FCB010E94A0
:101110008E096896EAE00C94260BA8E0B0E0E3E9BB
:10112000F8E00C940B0B9B01AC0183E08983DA019E
:10113000C9018827B7FD83959927AA27BB27B82E11
:10114000211531054105510519F482E089833AC022
:101150008823A9F0203080E0380780E0480780E845
:10116000580729F460E070E080E09FEC30C0EE2486
:10117000FF248701E21AF30A040B150B02C0790160
:101180008A018EE1C82ED12CDC82CB82ED82FE82D8
:101190000F831887C801B7010E943F0901971816ED
:1011A000190684F4082E04C0EE0CFF1C001F111F4A
:1011B0000A94D2F7ED82FE820F831887C81AD90AE3
:1011C000DC82CB82BA82CE0101960E948E092896DB
:1011D000E9E00C94270BACE0B0E0E1EFF8E00C9410
:1011E000120B69837A838B839C83CE010196BE01A7
:1011F0006B5F7F4F0E94630A8D81823061F1823084
:1012000050F1843021F48E81882351F12EC02F813A
:10121000388537FD20C06E812F3131051CF06623E3
:10122000F9F023C08EE190E0821B930B29853A856B
:101230004B855C8504C056954795379527958A95CB
:10124000D2F76623B1F050954095309521953F4FE8
:101250004F4F5F4F0EC020E030E040E050E009C04B
:101260002FEF3FEF4FEF5FE704C020E030E040E0BA
:1012700050E8B901CA012C96E2E00C942E0BEF92D3
:10128000FF920F931F937B018C0180E0E81680E0B2
:10129000F80681E0080780E0180788F48FEFE81669
:1012A000F1040105110531F028F088E090E0A0E09C
:1012B000B0E017C080E090E0A0E0B0E012C080E0B5
:1012C000E81680E0F80680E0080781E0180728F0BB
:1012D00088E190E0A0E0B0E004C080E190E0A0E010
:1012E000B0E020E230E040E050E0281B390B4A0B30
:1012F0005B0B04C016950795F794E7948A95D2F78F
:10130000F701EC5AFE4F8081281B31094109510930
:10131000C9011F910F91FF90EF900895DF92EF9216
:10132000FF920F931F93FC01E480F58006811781E3
:10133000D1808081823048F480E090E0A0E1B0E08C
:10134000E82AF92A0A2B1B2BA5C0843009F49FC078
:10135000823021F4EE24FF24870105C0E114F1045A
:101360000105110519F4E0E0F0E096C06281738197
:101370009FEF623879070CF05BC022E83FEF261B35
:10138000370B2A3131052CF020E030E040E050E00E
:101390002AC0B801A701022E04C07695679557951B
:1013A00047950A94D2F781E090E0A0E0B0E004C055
:1013B000880F991FAA1FBB1F2A95D2F70197A10971
:1013C000B1098E219F21A023B1230097A105B1056A
:1013D00021F081E090E0A0E0B0E09A01AB01282B81
:1013E000392B4A2B5B2BDA01C9018F779070A070E3
:1013F000B07080349105A105B10539F427FF09C00B
:10140000205C3F4F4F4F5F4F04C0215C3F4F4F4F19
:101410005F4FE0E0F0E02030A0E03A07A0E04A07AC
:10142000A0E45A0710F0E1E0F0E079018A0127C05A
:101430006038710564F5FB01E158FF4FD801C70121
:101440008F779070A070B07080349105A105B105C0
:1014500039F4E7FE0DC080E490E0A0E0B0E004C005
:101460008FE390E0A0E0B0E0E80EF91E0A1F1B1F1A
:1014700017FF05C016950795F794E794319687E016
:1014800016950795F794E7948A95D1F705C0EE2451
:10149000FF248701EFEFF0E06E2F679566276795D1
:1014A000902F9F77D794DD24D7948E2F8695492F40
:1014B000462B582F5D29B701CA011F910F91FF904C
:1014C000EF90DF900895FC01DB0140815181228182
:1014D000622F6F7770E0221F2227221F9381892FAE
:1014E000880F822B282F30E0991F9927991F11967A
:1014F0009C93119721153105A9F5411551056105F9
:10150000710511F482E037C082E89FEF13969C9337
:101510008E9312979A01AB0167E0220F331F441F8D
:10152000551F6A95D1F783E08C930DC0220F331FAE
:10153000441F551F12968D919C91139701971396F6
:101540009C938E931297203080E0380780E0480704
:1015500080E4580758F314962D933D934D935C9374
:10156000179708952F3F310579F44115510561050D
:10157000710519F484E08C93089564FF03C081E041
:101580008C9312C01C9210C02F57304013963C937E
:101590002E93129783E08C9387E0440F551F661FAC
:1015A000771F8A95D1F7706414964D935D936D9370
:1015B0007C931797089597FB092E07260AD077FD8D
:1015C00004D00CD006D000201AF4709561957F4F9E
:1015D0000895F6F7909581959F4F0895AA1BBB1B20
:1015E00051E107C0AA1FBB1FA617B70710F0A61B23
:1015F000B70B881F991F5A95A9F780959095BC0144
:10160000CD0108952F923F924F925F926F927F92F9
:101610008F929F92AF92BF92CF92DF92EF92FF9202
:101620000F931F93CF93DF93CDB7DEB7CA1BDB0BAE
:101630000FB6F894DEBF0FBECDBF09942A88398853
:1016400048885F846E847D848C849B84AA84B9845A
:10165000C884DF80EE80FD800C811B81AA81B98166
:10166000CE0FD11D0FB6F894DEBF0FBECDBFED017A
:101670000895FC0188279927E89421912032E9F305
:10168000293010F02E30C8F32B3241F02D3239F4CE
:10169000689404C00E94570B820F911D2191205322
:1016A0002A30C0F31EF4909581959F4F08957AE0FB
:1016B000979F902D879F802D910D11240895AEE066
:1016C000B0E0E5E6FBE00C94100B0D891E898F89D4
:1016D000988D97FF02C080E090E801979E838D83EC
:1016E0001A83098386E08C839E01255E3F4FCE01DD
:1016F0000196698D7A8DA9010E94900B4D815E81C2
:1017000057FD0AC02F813885421753070CF49A0100
:10171000020F131FF80110822E96E4E00C942C0B9C
:10172000ABE0B0E0E6E9FBE00C94020B3C012B01DE
:101730005A01FC0117821682838181FD03C06FEF7D
:101740007FEFC6C19AE0892E1E010894211C311C2E
:10175000F3012381F20123FD859123FF81912F0164
:10176000882309F4B2C1853239F423FD859123FF22
:1017700081912F01853229F490E0B3010E948F0DF1
:10178000E7CF982FFF24EE249924FFE1FF15D0F036
:101790009B3269F09C3228F4903259F0933291F4E4
:1017A0000EC09D3249F0903369F441E024C052E00C
:1017B000F52A84E0F82A28C098E0F92A25C0E0E15B
:1017C000FE2A22C0F7FC29C0892F80538A3070F48A
:1017D000F6FE05C0989C902C1124980E15C0E89C2C
:1017E000E02C1124E80EF0E2FF2A0EC09E3229F40C
:1017F000F6FC6BC140E4F42A07C09C3619F450E8AB
:10180000F52A02C0983649F4F20123FD959123FF91
:1018100091912F01992309F0B8CF892F85548330F6
:1018200018F08052833038F444E050E0A40EB51E26
:101830005FE359830FC0933631F0933779F09335D6
:1018400009F056C020C0F5018081898342E050E054
:10185000A40EB51E610101E010E012C0F501C080C8
:10186000D180F6FC03C06FEF7FEF02C0692D70E0FE
:1018700042E050E0A40EB51EC6010E94840D8C010A
:101880005FE7F52214C0F501C080D180F6FC03C0EB
:101890006FEF7FEF02C0692D70E042E050E0A40ED0
:1018A000B51EC6010E94790D8C0150E8F52AF3FEA1
:1018B00007C01AC080E290E0B3010E948F0DEA9445
:1018C0008E2D90E008171907A8F30EC0F601F7FC5B
:1018D0008591F7FE81916F0190E0B3010E948F0D19
:1018E000E110EA94015010400115110579F7EAC0A2
:1018F000943611F0993669F5F7FE08C0F50120819C
:1019000031814281538184E090E00AC0F5018081F9
:1019100091819C01442737FD4095542F82E090E04F
:10192000A80EB91E9FE6F92257FF09C050954095B1
:10193000309521953F4F4F4F5F4FE0E8FE2ACA0197
:10194000B901A1012AE030E00E94BB0DD82ED218C7
:1019500040C0953729F41F2D1F7E2AE030E01DC0BE
:101960001F2D197F9F3661F0903720F4983509F0CC
:10197000ACC00FC0903739F0983709F0A6C004C04A
:1019800028E030E00AC0106114FD146020E130E06E
:1019900004C014FD166020E132E017FF08C0F50115
:1019A000608171818281938144E050E008C0F5013B
:1019B00080819181BC0180E090E042E050E0A40E83
:1019C000B51EA1010E94BB0DD82ED2188FE7F82EAC
:1019D000F122F6FE0BC05EEFF522D91438F4F4FEC6
:1019E00007C0F2FC05C08FEEF82202C01D2D01C019
:1019F000192DF4FE0DC0FE01ED0DF11D8081803327
:101A000019F499EEF92208C01F5FF2FE05C003C069
:101A10008F2D867809F01F5F0F2DF3FC14C0F0FEA8
:101A20000FC01E1510F09D2C0BC09D2C9E0C911A02
:101A30001E2D06C080E290E0B3010E948F0D1F5F53
:101A40001E15C0F304C01E1510F4E11A01C0EE24E7
:101A500004FF0FC080E390E0B3010E948F0D02FFEE
:101A60001DC001FD03C088E790E00EC088E590E04E
:101A70000BC0802F867891F001FF02C08BE201C07D
:101A800080E2F7FC8DE290E0B3010E948F0D06C06A
:101A900080E390E0B3010E948F0D9A94D914C0F3B3
:101AA000DA94F101ED0DF11D808190E0B3010E9407
:101AB0008F0DDD20A9F706C080E290E0B3010E94FF
:101AC0008F0DEA94EE20C1F743CEF3016681778152
:101AD000CB012B96E2E10C941E0BA8E1B0E042E0B2
:101AE00050E00C941B0E0196272F0E942A0E0C9496
:101AF000290EFC010590615070400110D8F78095C7
:101B000090958E0F9F1F0895FC01615070400190C9
:101B10000110D8F7809590958E0F9F1F08950F9311
:101B20001F93CF93DF938C01EB018B8181FF1BC04F
:101B300082FF0DC02E813F818C819D81281739073E
:101B400064F4E881F9810193F983E88306C0E885AC
:101B5000F985802F0995892B31F48E819F8101961B
:101B60009F838E8302C00FEF1FEFC801DF91CF91DB
:101B70001F910F910895FA01AA27283051F12031C1
:101B800081F1E8946F936E7F6E5F7F4F8F4F9F4F11
:101B9000AF4FB1E03ED0B4E03CD0670F781F891F53
:101BA0009A1FA11D680F791F8A1F911DA11D6A0F21
:101BB000711D811D911DA11D20D009F468943F91D4
:101BC0002AE0269F11243019305D3193DEF6CF01D3
:101BD0000895462F4770405D4193B3E00FD0C9F799
:101BE000F6CF462F4F70405D4A3318F0495D31FD06
:101BF0004052419302D0A9F7EACFB4E0A695979559
:101C0000879577956795BA95C9F70097610571052E
:101C100008959B01AC010A2E069457954795379578
:101C20002795BA95C9F7620F731F841F951FA01DD2
:101C30000895DC01CB01FC01F999FECF06C0F2BD8D
:101C4000E1BDF89A319600B40D9241505040B8F77A
:101C50000895262FF999FECF92BD81BDF89A01977C
:101C600000B4021639F01FBA20BD0FB6F894FA9AE4
:0A1C7000F99A0FBE0895F894FFCF13
:101C7A00416C65782056696C65736F7600446973A8
:101C8A0074616E63653A004D696E3A002020200047
:101C9A00256400636D0020202020202020002020C1
:101CAA0020202000202020202020202020004572F3
:101CBA00726F7200533A002E00523A000000000080
:101CCA0000000000000102020303030304040404E9
:101CDA0004040404050505050505050505050505AE
:101CEA00050505050606060606060606060606068E
:101CFA00060606060606060606060606060606067A
:101D0A00060606060707070707070707070707075D
:101D1A000707070707070707070707070707070749
:101D2A000707070707070707070707070707070739
:101D3A000707070707070707070707070707070729
:101D4A00070707070808080808080808080808080D
:101D5A0008080808080808080808080808080808F9
:101D6A0008080808080808080808080808080808E9
:101D7A0008080808080808080808080808080808D9
:101D8A0008080808080808080808080808080808C9
:101D9A0008080808080808080808080808080808B9
:101DAA0008080808080808080808080808080808A9
:101DBA000808080808080808080808080808080899
:041DCA0008080808F5
:00000001FF
